{
    "_format": "hh-sol-artifact-1",
    "contractName": "SwapRouter",
    "sourceName": "contracts/SwapRouter.sol",
    "abi": [
        {
            "inputs": [
                {
                    "internalType": "address",
                    "name": "_factory",
                    "type": "address"
                },
                {
                    "internalType": "address",
                    "name": "_WETH9",
                    "type": "address"
                }
            ],
            "stateMutability": "nonpayable",
            "type": "constructor"
        },
        {
            "inputs": [],
            "name": "WETH9",
            "outputs": [
                {
                    "internalType": "address",
                    "name": "",
                    "type": "address"
                }
            ],
            "stateMutability": "view",
            "type": "function"
        },
        {
            "inputs": [
                {
                    "components": [
                        {
                            "internalType": "bytes",
                            "name": "path",
                            "type": "bytes"
                        },
                        {
                            "internalType": "address",
                            "name": "recipient",
                            "type": "address"
                        },
                        {
                            "internalType": "uint256",
                            "name": "deadline",
                            "type": "uint256"
                        },
                        {
                            "internalType": "uint256",
                            "name": "amountIn",
                            "type": "uint256"
                        },
                        {
                            "internalType": "uint256",
                            "name": "amountOutMinimum",
                            "type": "uint256"
                        }
                    ],
                    "internalType": "struct ISwapRouter.ExactInputParams",
                    "name": "params",
                    "type": "tuple"
                }
            ],
            "name": "exactInput",
            "outputs": [
                {
                    "internalType": "uint256",
                    "name": "amountOut",
                    "type": "uint256"
                }
            ],
            "stateMutability": "payable",
            "type": "function"
        },
        {
            "inputs": [
                {
                    "components": [
                        {
                            "internalType": "address",
                            "name": "tokenIn",
                            "type": "address"
                        },
                        {
                            "internalType": "address",
                            "name": "tokenOut",
                            "type": "address"
                        },
                        {
                            "internalType": "uint24",
                            "name": "fee",
                            "type": "uint24"
                        },
                        {
                            "internalType": "address",
                            "name": "recipient",
                            "type": "address"
                        },
                        {
                            "internalType": "uint256",
                            "name": "deadline",
                            "type": "uint256"
                        },
                        {
                            "internalType": "uint256",
                            "name": "amountIn",
                            "type": "uint256"
                        },
                        {
                            "internalType": "uint256",
                            "name": "amountOutMinimum",
                            "type": "uint256"
                        },
                        {
                            "internalType": "uint160",
                            "name": "sqrtPriceLimitX96",
                            "type": "uint160"
                        }
                    ],
                    "internalType": "struct ISwapRouter.ExactInputSingleParams",
                    "name": "params",
                    "type": "tuple"
                }
            ],
            "name": "exactInputSingle",
            "outputs": [
                {
                    "internalType": "uint256",
                    "name": "amountOut",
                    "type": "uint256"
                }
            ],
            "stateMutability": "payable",
            "type": "function"
        },
        {
            "inputs": [
                {
                    "components": [
                        {
                            "internalType": "bytes",
                            "name": "path",
                            "type": "bytes"
                        },
                        {
                            "internalType": "address",
                            "name": "recipient",
                            "type": "address"
                        },
                        {
                            "internalType": "uint256",
                            "name": "deadline",
                            "type": "uint256"
                        },
                        {
                            "internalType": "uint256",
                            "name": "amountOut",
                            "type": "uint256"
                        },
                        {
                            "internalType": "uint256",
                            "name": "amountInMaximum",
                            "type": "uint256"
                        }
                    ],
                    "internalType": "struct ISwapRouter.ExactOutputParams",
                    "name": "params",
                    "type": "tuple"
                }
            ],
            "name": "exactOutput",
            "outputs": [
                {
                    "internalType": "uint256",
                    "name": "amountIn",
                    "type": "uint256"
                }
            ],
            "stateMutability": "payable",
            "type": "function"
        },
        {
            "inputs": [
                {
                    "components": [
                        {
                            "internalType": "address",
                            "name": "tokenIn",
                            "type": "address"
                        },
                        {
                            "internalType": "address",
                            "name": "tokenOut",
                            "type": "address"
                        },
                        {
                            "internalType": "uint24",
                            "name": "fee",
                            "type": "uint24"
                        },
                        {
                            "internalType": "address",
                            "name": "recipient",
                            "type": "address"
                        },
                        {
                            "internalType": "uint256",
                            "name": "deadline",
                            "type": "uint256"
                        },
                        {
                            "internalType": "uint256",
                            "name": "amountOut",
                            "type": "uint256"
                        },
                        {
                            "internalType": "uint256",
                            "name": "amountInMaximum",
                            "type": "uint256"
                        },
                        {
                            "internalType": "uint160",
                            "name": "sqrtPriceLimitX96",
                            "type": "uint160"
                        }
                    ],
                    "internalType": "struct ISwapRouter.ExactOutputSingleParams",
                    "name": "params",
                    "type": "tuple"
                }
            ],
            "name": "exactOutputSingle",
            "outputs": [
                {
                    "internalType": "uint256",
                    "name": "amountIn",
                    "type": "uint256"
                }
            ],
            "stateMutability": "payable",
            "type": "function"
        },
        {
            "inputs": [],
            "name": "factory",
            "outputs": [
                {
                    "internalType": "address",
                    "name": "",
                    "type": "address"
                }
            ],
            "stateMutability": "view",
            "type": "function"
        },
        {
            "inputs": [
                {
                    "internalType": "bytes[]",
                    "name": "data",
                    "type": "bytes[]"
                }
            ],
            "name": "multicall",
            "outputs": [
                {
                    "internalType": "bytes[]",
                    "name": "results",
                    "type": "bytes[]"
                }
            ],
            "stateMutability": "payable",
            "type": "function"
        },
        {
            "inputs": [],
            "name": "refundETH",
            "outputs": [],
            "stateMutability": "payable",
            "type": "function"
        },
        {
            "inputs": [
                {
                    "internalType": "address",
                    "name": "token",
                    "type": "address"
                },
                {
                    "internalType": "uint256",
                    "name": "value",
                    "type": "uint256"
                },
                {
                    "internalType": "uint256",
                    "name": "deadline",
                    "type": "uint256"
                },
                {
                    "internalType": "uint8",
                    "name": "v",
                    "type": "uint8"
                },
                {
                    "internalType": "bytes32",
                    "name": "r",
                    "type": "bytes32"
                },
                {
                    "internalType": "bytes32",
                    "name": "s",
                    "type": "bytes32"
                }
            ],
            "name": "selfPermit",
            "outputs": [],
            "stateMutability": "payable",
            "type": "function"
        },
        {
            "inputs": [
                {
                    "internalType": "address",
                    "name": "token",
                    "type": "address"
                },
                {
                    "internalType": "uint256",
                    "name": "nonce",
                    "type": "uint256"
                },
                {
                    "internalType": "uint256",
                    "name": "expiry",
                    "type": "uint256"
                },
                {
                    "internalType": "uint8",
                    "name": "v",
                    "type": "uint8"
                },
                {
                    "internalType": "bytes32",
                    "name": "r",
                    "type": "bytes32"
                },
                {
                    "internalType": "bytes32",
                    "name": "s",
                    "type": "bytes32"
                }
            ],
            "name": "selfPermitAllowed",
            "outputs": [],
            "stateMutability": "payable",
            "type": "function"
        },
        {
            "inputs": [
                {
                    "internalType": "address",
                    "name": "token",
                    "type": "address"
                },
                {
                    "internalType": "uint256",
                    "name": "nonce",
                    "type": "uint256"
                },
                {
                    "internalType": "uint256",
                    "name": "expiry",
                    "type": "uint256"
                },
                {
                    "internalType": "uint8",
                    "name": "v",
                    "type": "uint8"
                },
                {
                    "internalType": "bytes32",
                    "name": "r",
                    "type": "bytes32"
                },
                {
                    "internalType": "bytes32",
                    "name": "s",
                    "type": "bytes32"
                }
            ],
            "name": "selfPermitAllowedIfNecessary",
            "outputs": [],
            "stateMutability": "payable",
            "type": "function"
        },
        {
            "inputs": [
                {
                    "internalType": "address",
                    "name": "token",
                    "type": "address"
                },
                {
                    "internalType": "uint256",
                    "name": "value",
                    "type": "uint256"
                },
                {
                    "internalType": "uint256",
                    "name": "deadline",
                    "type": "uint256"
                },
                {
                    "internalType": "uint8",
                    "name": "v",
                    "type": "uint8"
                },
                {
                    "internalType": "bytes32",
                    "name": "r",
                    "type": "bytes32"
                },
                {
                    "internalType": "bytes32",
                    "name": "s",
                    "type": "bytes32"
                }
            ],
            "name": "selfPermitIfNecessary",
            "outputs": [],
            "stateMutability": "payable",
            "type": "function"
        },
        {
            "inputs": [
                {
                    "internalType": "address",
                    "name": "token",
                    "type": "address"
                },
                {
                    "internalType": "uint256",
                    "name": "amountMinimum",
                    "type": "uint256"
                },
                {
                    "internalType": "address",
                    "name": "recipient",
                    "type": "address"
                }
            ],
            "name": "sweepToken",
            "outputs": [],
            "stateMutability": "payable",
            "type": "function"
        },
        {
            "inputs": [
                {
                    "internalType": "address",
                    "name": "token",
                    "type": "address"
                },
                {
                    "internalType": "uint256",
                    "name": "amountMinimum",
                    "type": "uint256"
                },
                {
                    "internalType": "address",
                    "name": "recipient",
                    "type": "address"
                },
                {
                    "internalType": "uint256",
                    "name": "feeBips",
                    "type": "uint256"
                },
                {
                    "internalType": "address",
                    "name": "feeRecipient",
                    "type": "address"
                }
            ],
            "name": "sweepTokenWithFee",
            "outputs": [],
            "stateMutability": "payable",
            "type": "function"
        },
        {
            "inputs": [
                {
                    "internalType": "int256",
                    "name": "amount0Delta",
                    "type": "int256"
                },
                {
                    "internalType": "int256",
                    "name": "amount1Delta",
                    "type": "int256"
                },
                {
                    "internalType": "bytes",
                    "name": "_data",
                    "type": "bytes"
                }
            ],
            "name": "uniswapV3SwapCallback",
            "outputs": [],
            "stateMutability": "nonpayable",
            "type": "function"
        },
        {
            "inputs": [
                {
                    "internalType": "uint256",
                    "name": "amountMinimum",
                    "type": "uint256"
                },
                {
                    "internalType": "address",
                    "name": "recipient",
                    "type": "address"
                }
            ],
            "name": "unwrapWETH9",
            "outputs": [],
            "stateMutability": "payable",
            "type": "function"
        },
        {
            "inputs": [
                {
                    "internalType": "uint256",
                    "name": "amountMinimum",
                    "type": "uint256"
                },
                {
                    "internalType": "address",
                    "name": "recipient",
                    "type": "address"
                },
                {
                    "internalType": "uint256",
                    "name": "feeBips",
                    "type": "uint256"
                },
                {
                    "internalType": "address",
                    "name": "feeRecipient",
                    "type": "address"
                }
            ],
            "name": "unwrapWETH9WithFee",
            "outputs": [],
            "stateMutability": "payable",
            "type": "function"
        },
        {
            "stateMutability": "payable",
            "type": "receive"
        }
    ],
    "bytecode": "0x60c06040526000196000553480156200001757600080fd5b506040516200318d3803806200318d8339810160408190526200003a9162000076565b6001600160601b0319606092831b8116608052911b1660a052620000ad565b80516001600160a01b03811681146200007157600080fd5b919050565b6000806040838503121562000089578182fd5b620000948362000059565b9150620000a46020840162000059565b90509250929050565b60805160601c60a05160601c613084620001096000398061012f52806105c252806106ec528061078652806107c652806108f05280611d805280611de05280611e61525080610e05528061144b5280611f6352506130846000f3fe6080604052600436106101125760003560e01c8063c04b8d59116100a5578063df2ab5bb11610074578063f28c049811610059578063f28c0498146102f5578063f3995c6714610308578063fa461e331461031b576101bd565b8063df2ab5bb146102cf578063e0e189a0146102e2576101bd565b8063c04b8d5914610281578063c2e3140a14610294578063c45a0155146102a7578063db3e2198146102bc576101bd565b80634aa4a4fc116100e15780634aa4a4fc146102195780639b2c0a371461023b578063a4a78f0c1461024e578063ac9650d814610261576101bd565b806312210e8a146101c2578063414bf389146101ca5780634659a494146101f357806349404b7c14610206576101bd565b366101bd573373ffffffffffffffffffffffffffffffffffffffff7f000000000000000000000000000000000000000000000000000000000000000016146101bb57604080517f08c379a000000000000000000000000000000000000000000000000000000000815260206004820152600960248201527f4e6f742057455448390000000000000000000000000000000000000000000000604482015290519081900360640190fd5b005b600080fd5b6101bb61033b565b6101dd6101d8366004612b56565b61034d565b6040516101ea9190612f4f565b60405180910390f35b6101bb6102013660046128d4565b6104fe565b6101bb610214366004612c5d565b6105be565b34801561022557600080fd5b5061022e610784565b6040516101ea9190612d95565b6101bb610249366004612c8c565b6107a8565b6101bb61025c3660046128d4565b6109c0565b61027461026f366004612934565b610a95565b6040516101ea9190612e08565b6101dd61028f366004612aab565b610bef565b6101bb6102a23660046128d4565b610d4e565b3480156102b357600080fd5b5061022e610e03565b6101dd6102ca366004612b56565b610e27565b6101bb6102dd366004612835565b610fb7565b6101bb6102f0366004612876565b6110d4565b6101dd610303366004612b72565b61123a565b6101bb6103163660046128d4565b61136e565b34801561032757600080fd5b506101bb6103363660046129c6565b611406565b471561034b5761034b334761154d565b565b600081608001358061035d61169b565b11156103ca57604080517f08c379a000000000000000000000000000000000000000000000000000000000815260206004820152601360248201527f5472616e73616374696f6e20746f6f206f6c6400000000000000000000000000604482015290519081900360640190fd5b61047060a08401356103e26080860160608701612812565b6103f3610100870160e08801612812565b604080518082019091528061040b60208a018a612812565b61041b60608b0160408c01612c3a565b61042b60408c0160208d01612812565b60405160200161043d93929190612d1f565b60405160208183030381529060405281526020013373ffffffffffffffffffffffffffffffffffffffff1681525061169f565b91506104b16040518060400160405280601181526020017f616d6f756e744f7574202020202020202000000000000000000000000000000081525083611825565b8260c001358210156104f8576040517f08c379a00000000000000000000000000000000000000000000000000000000081526004016104ef90612ed0565b60405180910390fd5b50919050565b604080517f8fcbaf0c00000000000000000000000000000000000000000000000000000000815233600482015230602482015260448101879052606481018690526001608482015260ff851660a482015260c4810184905260e48101839052905173ffffffffffffffffffffffffffffffffffffffff881691638fcbaf0c9161010480830192600092919082900301818387803b15801561059e57600080fd5b505af11580156105b2573d6000803e3d6000fd5b50505050505050505050565b60007f000000000000000000000000000000000000000000000000000000000000000073ffffffffffffffffffffffffffffffffffffffff166370a08231306040518263ffffffff1660e01b8152600401808273ffffffffffffffffffffffffffffffffffffffff16815260200191505060206040518083038186803b15801561064757600080fd5b505afa15801561065b573d6000803e3d6000fd5b505050506040513d602081101561067157600080fd5b50519050828110156106e457604080517f08c379a000000000000000000000000000000000000000000000000000000000815260206004820152601260248201527f496e73756666696369656e742057455448390000000000000000000000000000604482015290519081900360640190fd5b801561077f577f000000000000000000000000000000000000000000000000000000000000000073ffffffffffffffffffffffffffffffffffffffff16632e1a7d4d826040518263ffffffff1660e01b815260040180828152602001915050600060405180830381600087803b15801561075d57600080fd5b505af1158015610771573d6000803e3d6000fd5b5050505061077f828261154d565b505050565b7f000000000000000000000000000000000000000000000000000000000000000081565b6000821180156107b9575060648211155b6107c257600080fd5b60007f000000000000000000000000000000000000000000000000000000000000000073ffffffffffffffffffffffffffffffffffffffff166370a08231306040518263ffffffff1660e01b8152600401808273ffffffffffffffffffffffffffffffffffffffff16815260200191505060206040518083038186803b15801561084b57600080fd5b505afa15801561085f573d6000803e3d6000fd5b505050506040513d602081101561087557600080fd5b50519050848110156108e857604080517f08c379a000000000000000000000000000000000000000000000000000000000815260206004820152601260248201527f496e73756666696369656e742057455448390000000000000000000000000000604482015290519081900360640190fd5b80156109b9577f000000000000000000000000000000000000000000000000000000000000000073ffffffffffffffffffffffffffffffffffffffff16632e1a7d4d826040518263ffffffff1660e01b815260040180828152602001915050600060405180830381600087803b15801561096157600080fd5b505af1158015610975573d6000803e3d6000fd5b505050506000612710610991858461192390919063ffffffff16565b8161099857fe5b04905080156109ab576109ab838261154d565b6109b78582840361154d565b505b5050505050565b604080517fdd62ed3e00000000000000000000000000000000000000000000000000000000815233600482015230602482015290517fffffffffffffffffffffffffffffffffffffffffffffffffffffffffffffffff9173ffffffffffffffffffffffffffffffffffffffff89169163dd62ed3e91604480820192602092909190829003018186803b158015610a5557600080fd5b505afa158015610a69573d6000803e3d6000fd5b505050506040513d6020811015610a7f57600080fd5b505110156109b7576109b78686868686866104fe565b60608167ffffffffffffffff81118015610aae57600080fd5b50604051908082528060200260200182016040528015610ae257816020015b6060815260200190600190039081610acd5790505b50905060005b82811015610be85760008030868685818110610b0057fe5b9050602002810190610b129190612f58565b604051610b20929190612d85565b600060405180830381855af49150503d8060008114610b5b576040519150601f19603f3d011682016040523d82523d6000602084013e610b60565b606091505b509150915081610bc657604481511015610b7957600080fd5b60048101905080806020019051810190610b939190612a41565b6040517f08c379a00000000000000000000000000000000000000000000000000000000081526004016104ef9190612e86565b80848481518110610bd357fe5b60209081029190910101525050600101610ae8565b5092915050565b6000816040015180610bff61169b565b1115610c6c57604080517f08c379a000000000000000000000000000000000000000000000000000000000815260206004820152601360248201527f5472616e73616374696f6e20746f6f206f6c6400000000000000000000000000604482015290519081900360640190fd5b335b6000610c7d856000015161194d565b9050610cd6856060015182610c96578660200151610c98565b305b60006040518060400160405280610cb28b60000151611959565b81526020018773ffffffffffffffffffffffffffffffffffffffff1681525061169f565b60608601528015610cf6578451309250610cef90611968565b8552610d03565b8460600151935050610d09565b50610c6e565b8360800151831015610d47576040517f08c379a00000000000000000000000000000000000000000000000000000000081526004016104ef90612ed0565b5050919050565b604080517fdd62ed3e0000000000000000000000000000000000000000000000000000000081523360048201523060248201529051869173ffffffffffffffffffffffffffffffffffffffff89169163dd62ed3e91604480820192602092909190829003018186803b158015610dc357600080fd5b505afa158015610dd7573d6000803e3d6000fd5b505050506040513d6020811015610ded57600080fd5b505110156109b7576109b786868686868661136e565b7f000000000000000000000000000000000000000000000000000000000000000081565b6000816080013580610e3761169b565b1115610ea457604080517f08c379a000000000000000000000000000000000000000000000000000000000815260206004820152601360248201527f5472616e73616374696f6e20746f6f206f6c6400000000000000000000000000604482015290519081900360640190fd5b610f4d60a0840135610ebc6080860160608701612812565b610ecd610100870160e08801612812565b6040518060400160405280886020016020810190610eeb9190612812565b610efb60608b0160408c01612c3a565b610f0860208c018c612812565b604051602001610f1a93929190612d1f565b60405160208183030381529060405281526020013373ffffffffffffffffffffffffffffffffffffffff1681525061199d565b91508260c00135821115610f8d576040517f08c379a00000000000000000000000000000000000000000000000000000000081526004016104ef90612e99565b507fffffffffffffffffffffffffffffffffffffffffffffffffffffffffffffffff600055919050565b60008373ffffffffffffffffffffffffffffffffffffffff166370a08231306040518263ffffffff1660e01b8152600401808273ffffffffffffffffffffffffffffffffffffffff16815260200191505060206040518083038186803b15801561102057600080fd5b505afa158015611034573d6000803e3d6000fd5b505050506040513d602081101561104a57600080fd5b50519050828110156110bd57604080517f08c379a000000000000000000000000000000000000000000000000000000000815260206004820152601260248201527f496e73756666696369656e7420746f6b656e0000000000000000000000000000604482015290519081900360640190fd5b80156110ce576110ce848383611b59565b50505050565b6000821180156110e5575060648211155b6110ee57600080fd5b60008573ffffffffffffffffffffffffffffffffffffffff166370a08231306040518263ffffffff1660e01b8152600401808273ffffffffffffffffffffffffffffffffffffffff16815260200191505060206040518083038186803b15801561115757600080fd5b505afa15801561116b573d6000803e3d6000fd5b505050506040513d602081101561118157600080fd5b50519050848110156111f457604080517f08c379a000000000000000000000000000000000000000000000000000000000815260206004820152601260248201527f496e73756666696369656e7420746f6b656e0000000000000000000000000000604482015290519081900360640190fd5b80156109b75760006127106112098386611923565b8161121057fe5b049050801561122457611224878483611b59565b6112318786838503611b59565b50505050505050565b600081604001358061124a61169b565b11156112b757604080517f08c379a000000000000000000000000000000000000000000000000000000000815260206004820152601360248201527f5472616e73616374696f6e20746f6f206f6c6400000000000000000000000000604482015290519081900360640190fd5b61132a60608401356112cf6040860160208701612812565b60408051808201909152600090806112e78980612f58565b8080601f0160208091040260200160405190810160405280939291908181526020018383808284376000920191909152505050908252503360209091015261199d565b5060005491508260800135821115610f8d576040517f08c379a00000000000000000000000000000000000000000000000000000000081526004016104ef90612e99565b604080517fd505accf000000000000000000000000000000000000000000000000000000008152336004820152306024820152604481018790526064810186905260ff8516608482015260a4810184905260c48101839052905173ffffffffffffffffffffffffffffffffffffffff88169163d505accf9160e480830192600092919082900301818387803b15801561059e57600080fd5b60008413806114155750600083135b61141e57600080fd5b600061142c82840184612baa565b905060008060006114408460000151611d2e565b9250925092506114727f0000000000000000000000000000000000000000000000000000000000000000848484611d5f565b5060008060008a136114b3578473ffffffffffffffffffffffffffffffffffffffff168473ffffffffffffffffffffffffffffffffffffffff1610896114e4565b8373ffffffffffffffffffffffffffffffffffffffff168573ffffffffffffffffffffffffffffffffffffffff16108a5b915091508115611503576114fe8587602001513384611d7e565b6105b2565b855161150e9061194d565b1561153357855161151e90611968565b865261152d813360008961199d565b506105b2565b806000819055508394506105b28587602001513384611d7e565b6040805160008082526020820190925273ffffffffffffffffffffffffffffffffffffffff84169083906040518082805190602001908083835b602083106115c457805182527fffffffffffffffffffffffffffffffffffffffffffffffffffffffffffffffe09092019160209182019101611587565b6001836020036101000a03801982511681845116808217855250505050505090500191505060006040518083038185875af1925050503d8060008114611626576040519150601f19603f3d011682016040523d82523d6000602084013e61162b565b606091505b505090508061077f57604080517f08c379a000000000000000000000000000000000000000000000000000000000815260206004820152600360248201527f5354450000000000000000000000000000000000000000000000000000000000604482015290519081900360640190fd5b4290565b600073ffffffffffffffffffffffffffffffffffffffff84166116c0573093505b60008060006116d28560000151611d2e565b9194509250905073ffffffffffffffffffffffffffffffffffffffff80831690841610600080611703868686611f5c565b73ffffffffffffffffffffffffffffffffffffffff1663128acb088b856117298f611f9a565b73ffffffffffffffffffffffffffffffffffffffff8e161561174b578d611771565b8761176a5773fffd8963efd1fc6a506488495d951d5263988d25611771565b6401000276a45b8d6040516020016117829190612f07565b6040516020818303038152906040526040518663ffffffff1660e01b81526004016117b1959493929190612db6565b6040805180830381600087803b1580156117ca57600080fd5b505af11580156117de573d6000803e3d6000fd5b505050506040513d601f19601f8201168201806040525081019061180291906129a3565b91509150826118115781611813565b805b6000039b9a5050505050505050505050565b61191f82826040516024018080602001838152602001828103825284818151815260200191508051906020019080838360005b83811015611870578181015183820152602001611858565b50505050905090810190601f16801561189d5780820380516001836020036101000a031916815260200191505b50604080517fffffffffffffffffffffffffffffffffffffffffffffffffffffffffffffffe08184030181529190526020810180517bffffffffffffffffffffffffffffffffffffffffffffffffffffffff167f9710a9d0000000000000000000000000000000000000000000000000000000001790529350611fcc92505050565b5050565b600082158061193e5750508181028183828161193b57fe5b04145b61194757600080fd5b92915050565b8051604211155b919050565b6060611947826000602b611fed565b80516060906119479083906017907fffffffffffffffffffffffffffffffffffffffffffffffffffffffffffffffe901611fed565b600073ffffffffffffffffffffffffffffffffffffffff84166119be573093505b60008060006119d08560000151611d2e565b9194509250905073ffffffffffffffffffffffffffffffffffffffff80841690831610600080611a01858786611f5c565b73ffffffffffffffffffffffffffffffffffffffff1663128acb088b85611a278f611f9a565b60000373ffffffffffffffffffffffffffffffffffffffff8e1615611a4c578d611a72565b87611a6b5773fffd8963efd1fc6a506488495d951d5263988d25611a72565b6401000276a45b8d604051602001611a839190612f07565b6040516020818303038152906040526040518663ffffffff1660e01b8152600401611ab2959493929190612db6565b6040805180830381600087803b158015611acb57600080fd5b505af1158015611adf573d6000803e3d6000fd5b505050506040513d601f19601f82011682018060405250810190611b0391906129a3565b91509150600083611b18578183600003611b1e565b82826000035b909850905073ffffffffffffffffffffffffffffffffffffffff8a16611b4a578b8114611b4a57600080fd5b50505050505050949350505050565b6040805173ffffffffffffffffffffffffffffffffffffffff8481166024830152604480830185905283518084039091018152606490920183526020820180517bffffffffffffffffffffffffffffffffffffffffffffffffffffffff167fa9059cbb000000000000000000000000000000000000000000000000000000001781529251825160009485949389169392918291908083835b60208310611c2e57805182527fffffffffffffffffffffffffffffffffffffffffffffffffffffffffffffffe09092019160209182019101611bf1565b6001836020036101000a0380198251168184511680821785525050505050509050019150506000604051808303816000865af19150503d8060008114611c90576040519150601f19603f3d011682016040523d82523d6000602084013e611c95565b606091505b5091509150818015611cc3575080511580611cc35750808060200190516020811015611cc057600080fd5b50515b6109b957604080517f08c379a000000000000000000000000000000000000000000000000000000000815260206004820152600260248201527f5354000000000000000000000000000000000000000000000000000000000000604482015290519081900360640190fd5b60008080611d3c84826121d4565b9250611d498460146122d4565b9050611d568460176121d4565b91509193909250565b6000611d7585611d708686866123c4565b612441565b95945050505050565b7f000000000000000000000000000000000000000000000000000000000000000073ffffffffffffffffffffffffffffffffffffffff168473ffffffffffffffffffffffffffffffffffffffff16148015611dd95750804710155b15611f22577f000000000000000000000000000000000000000000000000000000000000000073ffffffffffffffffffffffffffffffffffffffff1663d0e30db0826040518263ffffffff1660e01b81526004016000604051808303818588803b158015611e4657600080fd5b505af1158015611e5a573d6000803e3d6000fd5b50505050507f000000000000000000000000000000000000000000000000000000000000000073ffffffffffffffffffffffffffffffffffffffff1663a9059cbb83836040518363ffffffff1660e01b8152600401808373ffffffffffffffffffffffffffffffffffffffff16815260200182815260200192505050602060405180830381600087803b158015611ef057600080fd5b505af1158015611f04573d6000803e3d6000fd5b505050506040513d6020811015611f1a57600080fd5b506110ce9050565b73ffffffffffffffffffffffffffffffffffffffff8316301415611f5057611f4b848383611b59565b6110ce565b6110ce84848484612471565b6000611f927f0000000000000000000000000000000000000000000000000000000000000000611f8d8686866123c4565b61264e565b949350505050565b60007f80000000000000000000000000000000000000000000000000000000000000008210611fc857600080fd5b5090565b80516a636f6e736f6c652e6c6f67602083016000808483855afa5050505050565b60608182601f01101561206157604080517f08c379a000000000000000000000000000000000000000000000000000000000815260206004820152600e60248201527f736c6963655f6f766572666c6f77000000000000000000000000000000000000604482015290519081900360640190fd5b8282840110156120d257604080517f08c379a000000000000000000000000000000000000000000000000000000000815260206004820152600e60248201527f736c6963655f6f766572666c6f77000000000000000000000000000000000000604482015290519081900360640190fd5b8183018451101561214457604080517f08c379a000000000000000000000000000000000000000000000000000000000815260206004820152601160248201527f736c6963655f6f75744f66426f756e6473000000000000000000000000000000604482015290519081900360640190fd5b60608215801561216357604051915060008252602082016040526121cb565b6040519150601f8416801560200281840101858101878315602002848b0101015b8183101561219c578051835260209283019201612184565b5050858452601f017fffffffffffffffffffffffffffffffffffffffffffffffffffffffffffffffe016604052505b50949350505050565b60008182601401101561224857604080517f08c379a000000000000000000000000000000000000000000000000000000000815260206004820152601260248201527f746f416464726573735f6f766572666c6f770000000000000000000000000000604482015290519081900360640190fd5b81601401835110156122bb57604080517f08c379a000000000000000000000000000000000000000000000000000000000815260206004820152601560248201527f746f416464726573735f6f75744f66426f756e64730000000000000000000000604482015290519081900360640190fd5b5001602001516c01000000000000000000000000900490565b60008182600301101561234857604080517f08c379a000000000000000000000000000000000000000000000000000000000815260206004820152601160248201527f746f55696e7432345f6f766572666c6f77000000000000000000000000000000604482015290519081900360640190fd5b81600301835110156123bb57604080517f08c379a000000000000000000000000000000000000000000000000000000000815260206004820152601460248201527f746f55696e7432345f6f75744f66426f756e6473000000000000000000000000604482015290519081900360640190fd5b50016003015190565b6123cc612784565b8273ffffffffffffffffffffffffffffffffffffffff168473ffffffffffffffffffffffffffffffffffffffff161115612404579192915b506040805160608101825273ffffffffffffffffffffffffffffffffffffffff948516815292909316602083015262ffffff169181019190915290565b600061244d838361264e565b90503373ffffffffffffffffffffffffffffffffffffffff82161461194757600080fd5b6040805173ffffffffffffffffffffffffffffffffffffffff85811660248301528481166044830152606480830185905283518084039091018152608490920183526020820180517bffffffffffffffffffffffffffffffffffffffffffffffffffffffff167f23b872dd00000000000000000000000000000000000000000000000000000000178152925182516000948594938a169392918291908083835b6020831061254e57805182527fffffffffffffffffffffffffffffffffffffffffffffffffffffffffffffffe09092019160209182019101612511565b6001836020036101000a0380198251168184511680821785525050505050509050019150506000604051808303816000865af19150503d80600081146125b0576040519150601f19603f3d011682016040523d82523d6000602084013e6125b5565b606091505b50915091508180156125e35750805115806125e357508080602001905160208110156125e057600080fd5b50515b6109b757604080517f08c379a000000000000000000000000000000000000000000000000000000000815260206004820152600360248201527f5354460000000000000000000000000000000000000000000000000000000000604482015290519081900360640190fd5b6000816020015173ffffffffffffffffffffffffffffffffffffffff16826000015173ffffffffffffffffffffffffffffffffffffffff161061269057600080fd5b508051602080830151604093840151845173ffffffffffffffffffffffffffffffffffffffff94851681850152939091168385015262ffffff166060808401919091528351808403820181526080840185528051908301207fff0000000000000000000000000000000000000000000000000000000000000060a085015294901b7fffffffffffffffffffffffffffffffffffffffff0000000000000000000000001660a183015260b58201939093527fe34f199b19b2b4f47f68442619d555527d244f78a3297ea89325f843f87b8b5460d5808301919091528251808303909101815260f5909101909152805191012090565b604080516060810182526000808252602082018190529181019190915290565b803561195481613052565b600082601f8301126127bf578081fd5b81356127d26127cd82612fe6565b612fc2565b8181528460208386010111156127e6578283fd5b816020850160208301379081016020019190915292915050565b600061010082840312156104f8578081fd5b600060208284031215612823578081fd5b813561282e81613052565b9392505050565b600080600060608486031215612849578182fd5b833561285481613052565b925060208401359150604084013561286b81613052565b809150509250925092565b600080600080600060a0868803121561288d578081fd5b853561289881613052565b94506020860135935060408601356128af81613052565b92506060860135915060808601356128c681613052565b809150509295509295909350565b60008060008060008060c087890312156128ec578081fd5b86356128f781613052565b95506020870135945060408701359350606087013560ff8116811461291a578182fd5b9598949750929560808101359460a0909101359350915050565b60008060208385031215612946578182fd5b823567ffffffffffffffff8082111561295d578384fd5b818501915085601f830112612970578384fd5b81358181111561297e578485fd5b8660208083028501011115612991578485fd5b60209290920196919550909350505050565b600080604083850312156129b5578182fd5b505080516020909101519092909150565b600080600080606085870312156129db578182fd5b8435935060208501359250604085013567ffffffffffffffff80821115612a00578384fd5b818701915087601f830112612a13578384fd5b813581811115612a21578485fd5b886020828501011115612a32578485fd5b95989497505060200194505050565b600060208284031215612a52578081fd5b815167ffffffffffffffff811115612a68578182fd5b8201601f81018413612a78578182fd5b8051612a866127cd82612fe6565b818152856020838501011115612a9a578384fd5b611d75826020830160208601613026565b600060208284031215612abc578081fd5b813567ffffffffffffffff80821115612ad3578283fd5b9083019060a08286031215612ae6578283fd5b60405160a081018181108382111715612afb57fe5b604052823582811115612b0c578485fd5b612b18878286016127af565b825250612b27602084016127a4565b602082015260408301356040820152606083013560608201526080830135608082015280935050505092915050565b60006101008284031215612b68578081fd5b61282e8383612800565b600060208284031215612b83578081fd5b813567ffffffffffffffff811115612b99578182fd5b820160a0818503121561282e578182fd5b600060208284031215612bbb578081fd5b813567ffffffffffffffff80821115612bd2578283fd5b9083019060408286031215612be5578283fd5b604051604081018181108382111715612bfa57fe5b604052823582811115612c0b578485fd5b612c17878286016127af565b82525060208301359250612c2a83613052565b6020810192909252509392505050565b600060208284031215612c4b578081fd5b813562ffffff8116811461282e578182fd5b60008060408385031215612c6f578182fd5b823591506020830135612c8181613052565b809150509250929050565b60008060008060808587031215612ca1578182fd5b843593506020850135612cb381613052565b9250604085013591506060850135612cca81613052565b939692955090935050565b60008151808452612ced816020860160208601613026565b601f017fffffffffffffffffffffffffffffffffffffffffffffffffffffffffffffffe0169290920160200192915050565b606093841b7fffffffffffffffffffffffffffffffffffffffff000000000000000000000000908116825260e89390931b7fffffff0000000000000000000000000000000000000000000000000000000000166014820152921b166017820152602b0190565b6000828483379101908152919050565b73ffffffffffffffffffffffffffffffffffffffff91909116815260200190565b600073ffffffffffffffffffffffffffffffffffffffff8088168352861515602084015285604084015280851660608401525060a06080830152612dfd60a0830184612cd5565b979650505050505050565b6000602080830181845280855180835260408601915060408482028701019250838701855b82811015612e79577fffffffffffffffffffffffffffffffffffffffffffffffffffffffffffffffc0888603018452612e67858351612cd5565b94509285019290850190600101612e2d565b5092979650505050505050565b60006020825261282e6020830184612cd5565b60208082526012908201527f546f6f206d756368207265717565737465640000000000000000000000000000604082015260600190565b60208082526013908201527f546f6f206c6974746c6520726563656976656400000000000000000000000000604082015260600190565b600060208252825160406020840152612f236060840182612cd5565b905073ffffffffffffffffffffffffffffffffffffffff60208501511660408401528091505092915050565b90815260200190565b60008083357fffffffffffffffffffffffffffffffffffffffffffffffffffffffffffffffe1843603018112612f8c578283fd5b83018035915067ffffffffffffffff821115612fa6578283fd5b602001915036819003821315612fbb57600080fd5b9250929050565b60405181810167ffffffffffffffff81118282101715612fde57fe5b604052919050565b600067ffffffffffffffff821115612ffa57fe5b50601f017fffffffffffffffffffffffffffffffffffffffffffffffffffffffffffffffe01660200190565b60005b83811015613041578181015183820152602001613029565b838111156110ce5750506000910152565b73ffffffffffffffffffffffffffffffffffffffff8116811461307457600080fd5b5056fea164736f6c6343000706000a",
    "linkReferences": {},
    "deployedLinkReferences": {}
}